:400000000080002011000000DD060000DD06000008B5044B1A6803F53F5302331A6000F07DFB00BFFA46004010B5054C237833B9044B13B10448AFF300800123237010BD39
:40004000A081FF1F00000000904C0000084B10B51BB108490848AFF300800848036803B910BD074B002BFBD0BDE81040184700BF00000000A481FF1F904C0000C880FF1F9A
:4000800000000000F0B585B0584B1B78DBB213F01E0F05D0564803F01E0201780A43027003F0200303F0FF04002B00F09980514B1B78DBB24E494A684F48835401324A6025
:4000C0008A68052A00F28C80DFE802F0030C244C61767B2B40F08480454B0021D96001329A607DE0782B03D10222414B9A6077E0702B03D103223E4B9A6071E0692B03D13C
:4001000004223B4B9A606BE0642B69D10522384B9A6065E07D2B06D035490A693748835401320A615CE00A220021344802F04AFD334B18602E4D01236B6100262E61314BE9
:400140001A88314FAB690293304BD3E90001CDE900012F49384601F059FE384600F080FBAE603DE07D2B06D021490A692348835401320A6134E00021204802F095FC254BA8
:40018000C3E900011A4B00221A619A6028E07D2B06D017490A691948835401320A611FE00021164802F080FC1A4BC3E90201104B00221A619A6013E07D2B06D00C490A693C
:4001C0000E48835401320A610AE000210B4802F06BFC104BC3E90401054B00221A619A60002C7FF451AF05B0F0BD00BF68650040BC81FF1F4B6500400882FF1FF481FF1F37
:40020000F081FF1FFC81FF1FF085FF1F0082FF1F984C0000D080FF1F08B500F087FE0022094B00F037FD0022084B01F00FF80022074B00F0E1FE0022054B00F02BFD01F018
:4002400015F980B208BD00BF008046400080564000408F40000000002DE9F04782B000F00FFC00F0D1FC00F0DDFC002000F00AFB00F0DCFA584800F033FB62B66FF0580225
:40028000564B9A6100230024CDE900349846A1464FF0000A00E0A24600F0CCFC80B2504B188047F23053984204D900F5015030304B4B1880494B5B69002B68D0494B1B6865
:4002C000494CA361454D00226A61EA60444A1088181A00F02BFE06460F46444BC3E9006742464B4600F0D4FC8046894632463B46DDE9000100F0CEFCCDE90001D4E9002369
:400300003046394600F078FE06460F46D4E90223DDE9000100F070FE2DA3D3E9002300F06BFE02460B463046394600F0B3FC06460F46D4E904234046494600F05DFE24A3D9
:40034000D3E9002300F082FF02460B463046394600F0A0FC01F062F8A8612D2801DD2D22AA611E4B9B6913F12D0F03DA6FF02C021A4B9A61194B986900F12D035A2B03D8D5
:40038000FFF74AFF00F02AFB184BD3E90089642000F0C4FA00F082FA044600287FF47BAFBAF1000F3FF477AF0C4BDB6933B100F069FA0A4AD369013BD3616CE7012000F04B
:4003C00061FA064AD3690133D36164E7AFF300807B14AE47E17A843F85000000BC81FF1FFC81FF1FF081FF1FD080FF1F0082FF1FFEE700BFF0B40022174611E050F8276000
:40040000F3B226F0FF0608E001EB420511F812406D78A5550132013BDBB2002BF4D10137182FEBD9F0BC704708B50A46002101F074F808BDF8B51C4B1B78DBB21B4E34787C
:40044000E4B21B4F3D78EDB203F00701194A11701B090132137044F00303337045F003033B700922144B1A704023144A13700232137006321370023213700122104B1A7023
:40048000202203331A7008230E490B7003310A700D4A13700A2000F057FA3D70347044220A4B1A70F8BD00BFCF010049F8460040F94600406E5800402D51004001590040CC
:4004C000205B0040285B0040585B00407658004008B501F017F808BD38B517222E4B1A8018232E4A1370192502321580023213700C222B492B48FFF7EBFF02222A4B1A70B6
:4005000008224FF040231A70032103F500731970264B1B78DBB226490B70264B1A8041F25122023B1A8000240CE0234B1B7803F0010343EA440404F003044FF4F07000F03F
:4005400093FB013D0DB1032CEFD115B90320FFF74FFF1A4B4FF480721A8007221A70002217490A704820023108701A700222033B1A7004220A331A70124A137843F0030354
:400580001370013A137843F006031370013A137843F08003137038BD804000408240004078040048004100400043004008010049A14600402242004025420040044000402D
:4005C00006400040A243004038B572B600240CE0324D630019194A0011462A44084691882858FFF721FF0134E4B2072CF0D900240BE02A49A3001819420088188022416BBE
:40060000006BFFF765FF0134E4B2002CF1D024494FF09040FFF7EEFE224A137843F0020313701032137843F0020313701E4C237843F040032370A2F58632513A137843F0FF
:4006400010031370082219491948FFF741FF0A2218491948FFF73CFF082218491848FFF737FF0A2217491848FFF732FF174A137843F008031370164D61232B70FFF72CFF28
:4006800081232B700122134B1A70FFF7D3FE0E2221461148FFF71CFF38BD00BFAC4C00006400004803500140A0430040500400480251004058040048C05100406404004845
:4006C000125100406C04004820510040224300400048004004000840B043004008B500F0E5FE03680C2B00D1FEE7FEE708B5094B1A681044084BC31AB3F5407F02DC054BC9
:40070000186005E000F0D2FE0C2303604FF0FF32104608BDEC80FF1F2086FF1F08B5104E104D16E029686B68AC68002204E051F8040B43F8040B0432A242F8D1E86800224E
:4007400003E0002143F8041B04328242F9D11035013E002EE6D100F0AFFEFFF77DFDFEE701000000C04F000008B5104A104B1A60104A136843F40073136000230AE0032BD3
:4007800003D80D4A52F8231000E00C490C4A42F8231001332F2BF2D90A4B1A780A4B1A70074A0A4B1A60FFF70FFF08BD0004FA050CED00E014ED00E000000000DD060000EA
:4007C0000080FF1FBC760040C080FF1F08ED00E07222074B1A703E22033B1A700622603B1A70472210331A700022AF3B1A7070478B65004010B500F03FFA04460A4A137807
:4008000043F020031370033A137843F010031370FF3A137843F01003137000F06FF8204600F02EFA10BD00BF9B65004008B5054B1B7823B9FFF7CCFF0122024B1A70FFF7F3
:40084000D9FF08BDE081FF1F034B1B7813F0040FFAD1024B18707047696400404965004038B5074B1B782BB938BDFFF7EDFF0134A4B201E005460024285D0028F5D138BD43
:40088000E081FF1F044A137803F0FD03400000F0020018431070704720510040024B1878C0F38000704700BF21510040014B1B689864704708ED00E04001C0B2014B187062
:4008C000704700BF02E400E00422014B1A60704700E100E00422014B1A60704780E100E010B50446FFF7F6FF2046FFF7DFFF0720FFF7E2FFFFF7E8FF10BD00BF054A1378FF
:4009000043F0020313701032137843F002031370704700BFA243004001BE704710B5044605E0084B186800F09FF9A4F50044B4F5004FF6D8034B586800FB04F000F094F9F7
:4009400010BD00BFF080FF1F08B5034B1B7A00FB03F000F089F908BDF080FF1F70B504460E46074B1D681F2802D90020FFF7D4FF04F01F04103455F8240045F8246070BDAB
:4009800008ED00E038B504460D46072902D90020FFF7C2FF1F2C02D90020FFF7BDFF04F01F0000F1604000F564406D01EDB2057038BD00BF024A137843F0800313707047C4
:4009C00078640040014B1880704700BF10680040014B1880704700BF90680040014B1880704700BF50680040014B1870704700BF88640040014B1878704700BF6864004011
:400A0000014B188880B27047B068004008B501E0FFF7F6FFFFF7EEFF10F0100FF8D108BD10B5154A137803F0C00343F009031370124C237843F0010323702132137843F075
:400A40000103137044F61F60FFF7BCFF44F61F60FFF7BEFF4FF47A70FFF7C0FF0020FFF7C3FF00F009F9237843F01003237000F007F9FFF7CBFF10BD786400409864004024
:400A800008B5054B1B7823B9FFF7CAFF0122024B1A70FFF78FFF08BDE281FF1F08B50A280FD00C2802D0082806D102E04FF4805209E04FF4807206E00020FFF72DFF0022FD
:400AC00001E04FF480620021094B198042F2107303FB02F303F6C413064A82FB0302DB17C3EBE223044A1360044B198008BD00BF0C86FF1FAD8BDB681086FF1F0E86FF1F33
:400B000010B500F0B9F804461E4A137843F0010313701032137843F0010313701A3A137843F0020313701032137843F00203137002F5AA521232137843F00303137004220B
:400B4000114B1A70013B1A7842F040021A701A7802F0FC021A70C822053B1A700222A3F597530C3B1A70094A137843F0080313700A20FFF7E9FE0122054B1A60204600F0A3
:400B80007FF810BDAB43004006590040275B004080E200E010B504460A280DD00C2802D0082804D101E0C42207E0442205E00020FFF7B2FEC42200E08422034B1A7020468E
:400BC000FFF76CFF10BD00BF0259004008B5102000F03EF807210020FFF7D4FE07490020FFF7BCFE064A137843F0060313700C20FFF7D0FF0022034B1A8008BD4D0C000077
:400C0000015900401486FF1F08B5054B1B7823B9FFF7DCFF0122024B1A70FFF771FF08BDE381FF1F024A137843F001031370704700590040034B188880B2034B1B88C01AA2
:400C400000B27047A05B00400E86FF1F704700BF034B1A7800F0F80010431870704700BF06410040000000000230800803D000BF01380046FCD17047EFF3108072B6704768
:400C800080F31088704700BF81F0004102E000BF83F0004330B54FEA41044FEA430594EA050F08BF90EA020F1FBF54EA000C55EA020C7FEA645C7FEA655C00F0E2804FEA8F
:400CC0005454D4EB5555B8BF6D420CDD2C4480EA020281EA030382EA000083EA010180EA020281EA0303362D88BF30BD11F0004F4FEA01314FF4801C4CEA113102D04042CE
:400D000061EB410113F0004F4FEA03334CEA133302D0524263EB430394EA050F00F0A780A4F10104D5F1200E0DDB02FA0EFC22FA05F2801841F1000103FA0EF2801843FA19
:400D400005F359410EE0A5F120050EF1200E012A03FA0EFC28BF4CF0020C43FA05F3C01851EBE37101F0004507D54FF0000EDCF1000C7EEB00006EEB0101B1F5801F1BD3DC
:400D8000B1F5001F0CD349085FEA30004FEA3C0C04F101044FEA445212F5800F80F09A80BCF1004F08BF5FEA500C50F1000041EB045141EA050130BD5FEA4C0C404141EBC5
:400DC000010111F4801FA4F10104E9D191F0000F04BF01460020B1FA81F308BF2033A3F10B03B3F120020CDA0C3208DD02F1140CC2F10C0201FA0CF021FA02F10CE002F1DD
:400E00001402D8BFC2F1200C01FA02F120FA0CFCDCBF41EA0C019040E41AA2BF01EB0451294330BD6FEA04041F3C1CDA0C340EDC04F11404C4F1200220FA04F001FA02F3BC
:400E400040EA030021FA04F345EA030130BDC4F10C04C4F1200220FA02F001FA04F340EA0300294630BD21FA04F0294630BD94F0000F83F4801306BF81F480110134013DAA
:400E80004EE77FEA645C18BF7FEA655C29D094EA050F08BF90EA020F05D054EA000C04BF1946104630BD91EA030F1EBF0021002030BD5FEA545C05D14000494128BF41F029
:400EC000004130BD14F580043CBF01F5801130BD01F0004545F0FE4141F470014FF0000030BD7FEA645C1ABF194610467FEA655C1CBF0B46024650EA013406BF52EA03354F
:400F000091EA030F41F4002130BD00BF90F0000F04BF0021704730B54FF4806404F132044FF000054FF0000150E700BF90F0000F04BF0021704730B54FF4806404F13204E6
:400F400010F0004548BF40424FF000013EE700BF42004FEAE2014FEA31014FEA02701FBF12F07F4393F07F4F81F06051704792F0000F14BF93F07F4F704730B54FF46074D7
:400F800001F0004521F0004120E700BF50EA010208BF704730B54FF000050AE050EA010208BF704730B511F0004502D5404261EB41014FF4806404F132045FEA915C3FF48D
:400FC000DCAE4FF003025FEADC0C18BF03325FEADC0C18BF033202EBDC02C2F1200300FA03FC20FA02F001FA03FE40EA0E0021FA02F11444C1E600BF70B54FF0FF0C4CF454
:40100000E06C1CEA11541DBF1CEA135594EA0C0F95EA0C0F00F0DEF82C4481EA030621EA4C5123EA4C5350EA013518BF52EA033541F4801143F4801338D0A0FB02CE4FF081
:401040000005E1FB02E506F00042E0FB03E54FF00006E1FB03569CF0000F18BF4EF0010EA4F1FF04B6F5007F64F5407404D25FEA4E0E6D4146EB060642EAC62141EA55515B
:401080004FEAC52040EA5E504FEACE2EB4F1FD0C88BFBCF5E06F1ED8BEF1004F08BF5FEA500E50F1000041EB045170BD06F0004646EA010140EA020081EA0301B4EB5C04B7
:4010C000C2BFD4EB0C0541EA045170BD41F480114FF0000E013C00F3AB8014F1360FDEBF002001F0004170BDC4F10004203C35DA0C341BDC04F11404C4F1200500FA05F3EA
:4011000020FA04F001FA05F240EA020001F0004221F0004110EBD37021FA04F642EB06015EEA430E08BF20EAD37070BDC4F10C04C4F1200500FA04F320FA05F001FA04F20D
:4011400040EA020001F0004110EBD37041F100015EEA430E08BF20EAD37070BDC4F1200500FA05F24EEA020E20FA04F301FA05F243EA020321FA04F001F0004121FA04F22C
:4011800020EA020000EBD3705EEA430E08BF20EAD37070BD94F0000F0FD101F00046400041EB010111F4801F08BF013CF7D041EA060195F0000F18BF704703F000465200B5
:4011C00043EB030313F4801F08BF013DF7D043EA0603704794EA0C0F0CEA135518BF95EA0C0F0CD050EA410618BF52EA4306D1D181EA030101F000414FF0000070BD50EA52
:40120000410606BF1046194652EA430619D094EA0C0F02D150EA013613D195EA0C0F05D152EA03361CBF104619460AD181EA030101F0004141F0FE4141F470014FF0000078
:4012400070BD41F0FE4141F4780170BD70B54FF0FF0C4CF4E06C1CEA11541DBF1CEA135594EA0C0F95EA0C0F00F0A7F8A4EB050481EA030E52EA03354FEA013100F0888099
:401280004FEA03334FF0805545EA131343EA12634FEA022245EA111545EA10654FEA00260EF000419D4208BF964244F1FD0404F5407402D25B084FEA3202B61A65EB030593
:4012C0005B084FEA32024FF480104FF4002CB6EB020E75EB030E22BFB61A754640EA0C005B084FEA3202B6EB020E75EB030E22BFB61A754640EA5C005B084FEA3202B6EBC3
:40130000020E75EB030E22BFB61A754640EA9C005B084FEA3202B6EB020E75EB030E22BFB61A754640EADC0055EA060E18D04FEA051545EA16754FEA06164FEAC30343EACD
:4013400052734FEAC2025FEA1C1CC0D111F4801F0BD141EA00014FF000004FF0004CB6E711F4801F04BF01430020B4F1FD0C88BFBCF5E06F3FF6AFAEB5EB030C04BFB6EB21
:40138000020C5FEA500C50F1000041EB045170BD0EF0004E4EEA113114EB5C04C2BFD4EB0C0541EA045170BD41F480114FF0000E013C90E645EA060E8DE60CEA135594EA10
:4013C0000C0F08BF95EA0C0F3FF43BAF94EA0C0F0AD150EA01347FF434AF95EA0C0F7FF425AF104619462CE795EA0C0F06D152EA03353FF4FDAE1046194622E750EA410670
:4014000018BF52EA43067FF4C5AE50EA41047FF40DAF52EA43057FF4EBAE12E74FEA410212F5001215D211D56FF47873B3EB625212D94FEAC12343F0004343EA505311F0E2
:40144000004F23FA02F018BF404270474FF00000704750EA013005D111F0004008BF6FF0004070474FF00000704700BF4A0011D212F5001211D20DD56FF47873B3EB625209
:401480000ED44FEAC12343F0004343EA505323FA02F070474FF00000704750EA013002D14FF0FF3070474FF000007047014B1868704700BF6081FF1F0E4B70B51E460E4C55
:4014C0000025E41AA410A54204D056F8253098470135F8E703F062FD084B094C1E46E41AA4100025A54204D056F8253098470135F8E770BDA84F0000A84F0000A84F00002A
:40150000B04F000010B5431E0A44914204D011F8014B03F8014FF8E710BD03460244934202D003F8011BFAE770472DE9F04788B0149F002B1E461299B8BF03F1004327F029
:401540002007B6BF1E4600232D23462F1446109DDDF84CA00B7003D0452F03D1013501E0032300E0022307AA049206AA03928DE828042246334601F0BBFB472F804602D11F
:40158000119BDB0728D5462F08EB050911D198F80030302B0AD1002200232046314603F02FFB18B9C5F10105CAF80050DAF800309944002200232046314603F021FB08B9A3
:4015C000302202E0CDF81C9006E0079B994503D9591C07911A70F8E74046079B159AC8EB0303136008B0BDE8F087034673B50029B8BF494203F8022BB4BF2D222B220929B2
:4016000042701ADD0DF1070216460A2591FBF5F405FB1411092C01F1300102F8011D2146F4DC3031541E02F8011CB4421A460AD214F8012B03F8012BF7E71A4630242144BC
:4016400002F8024B5970101A02B070BD2DE9F04F91B00C46DDF8688016461F46054602F0FDFB03681846099300F0F4FB00230E93D8F800300A90073323F0070303F10802BF
:4016800094F81890D4F800B0C8F80020D3E90023C4E91223D4F84CA0D4F848802AF000430B934FF0FF32A74B40460B9903F0DAFAA0B94FF0FF32A34B40460B9903F0B4FABD
:4016C00060B9002200234046514603F0A3FA10B12D2384F843309C4B9C4A0AE0424653464046514603F0BEFA002800F09281984B984AB9F1470F8CBF9046984603232361A6
:401700002BF0040323604FF0000A3DE0B9F1670F00F08A81B9F1470F00F0868123600193636800210DF13302059002920093424653460691CDF81090CDF80CE02846FFF768
:40174000F4FE09F0DF03472B804600F08481B9F1650F0D9900F28D8101394A4604F150000D91FFF742FF0E9A82468318012A236100F37C812268D10700F178819DF83330D9
:4017800013B12D2384F84330009733460FAA2146284600F09FF9013002D14FF0FF3096E123685A0501D4236965E0B9F1650F40F2D580D4E912010022002303F021FA78B394
:4017C0000123654A31462846B8470130E5D00E9B0D9A9A420BDB2368D80708D423689B0740F111814FF0000804F1190906E10A9B099A31462846B8470130CED04FF000087D
:4018000004F11A090E9B013B9845E7DA01234A4631462846B8470130BFD008F10108F1E70D9B002B29DC01234B4A31462846B8470130B2D00D9B23B90E9B13B92368D9074F
:40184000CCD50A9B099A31462846B8470130A4D04FF0000904F11A0A0D9B5B42994509DA0123524631462846B847013095D009F10109F1E70E9B4246A7E00E9AA36D9A4231
:40188000A8BF1A46002A914606DC4FF0000A29EAE97904F11A0B11E01346314642462846B8470130F1D178E701235A4631462846B84701303FF471AF0AF1010AA36DC9EBA8
:4018C00003029245F0DB08EB03090D9A0E9B9A420FDB2368DA070CD40E9B0D9A9844C9EB08089B1A9845A8BF9846B8F1000F08DC0FE00A9B099A31462846B8470130EBD175
:401900004BE743464A4631462846B84701303FF444AF4FF0000928EAE87804F11A0A09E00123524631462846B84701303FF435AF09F101090D9A0E9B9B1AC8EB03039945DD
:40194000EEDB4BE7FFFFEF7FE84C0000EC4C0000F04C0000F44C0000F84C00000E9A012A01DCDB0738D50123424631462846B84701303FF412AF0A9B099A31462846B84754
:4019800001303FF40AAFD4E912010022002303F037F920B14FF0000804F11A090EE00E9B08F10102013B19E001234A4631462846B84701303FF4F1AE08F101080E9B013B58
:4019C0009845F1DB534604F1500231462846B84701307FF403AFE0E64246012331462846B8470130EED1D8E601234A4631462846B84701303FF4D1AE08F10108E3680F9AAF
:401A00009B1A9845F0DBE0680F9B9842B8BF18465DE062680EA8531C0DF1340E4BF480637FF474AE062201E012B90122626075E6002106910DF133018DE80C0023600590EE
:401A40004246CDF81090CDF80CE0029153462846FFF76BFD80460D9BD81C02DB626893421DDDA9F102095FFA89F970E60133236184E6B9F1660F14D10029636807DD2161A2
:401A800013B92268D2071DD501330B4419E013B92268D00701D5023313E0012311E04FF067090D9B0E9A934205DB22682361D10708D5013305E0002BD4BFC3F1020301231E
:401AC000134423610D9B4FF0000AA36556E611B0BDE8F08F2DE9F04791461F460A698B6806469342B8BF1346C9F8003091F843200C46DDF8208012B10133C9F800302368FA
:401B0000990642BFD9F800300233C9F80030256815F0060510D104F1190A07E00123524639463046C04701301AD00135E368D9F800209B1A9D42F1DB94F843302268003300
:401B400018BF012392060FD5E118302081F843005A1C94F845102244023382F8431003E04FF0FF30BDE8F08704F1430239463046C0470130F4D02268D9F80050E36802F0AA
:401B80000602042A08BF5D1B2269A3680CBF25EAE57500259342C4BF9B1AED184FF000091A344D4509D00123224639463046C0470130D5D009F10109F3E70020BDE8F08736
:401BC0002DE9F04317460A7E85B06E2A984606460C460C9B01F1430E00F0AE8011D8632A22D009D8002A00F0BB80582A40F0CA8081F84520834955E0642A1ED0692A1CD0F2
:401C0000C0E0732A00F0B08009D86F2A2ED0702A40F0B8800A6842F020020A603EE0752A24D0782A3AD0ADE01A6801F14205111D1960136884F84230A8E021681A6811F054
:401C4000800F02D0111D196008E011F0400F02F10401196002D0B2F9003000E01368002B3CDA2D225B4284F8432037E021681A6811F0800F02D0111D196007E011F0400F3D
:401C800002F10401196001D0138800E01368227E5C496F2A14BF0A2208221BE078225A4984F845202268186812F0800F00F104051D6003D1550601D5038800E00368D00708
:401CC00044BF42F0200222601BB9226822F0200222601022002084F8430001E049490A226568002DA56008DB206820F0040020602BB9002D7DD175460CE0002B79D0754614
:401D0000B3FBF2F002FB1033CB5C05F8013D03460028F5D1082A0BD12368DA0708D5236962689A42DEBF302305F8013C05F1FF35C5EB0E0323612EE008681A6810F0800F89
:401D4000496903D0101D1860136808E010F0400F02F104001860136801D0198000E0196000232361754616E01A68111D1960156800216268284602F07DF808B1401B606048
:401D8000636804E004F1420584F8422001232361002384F84330CDF800803B4603AA21463046FFF797FE013002D14FF0FF3026E023692A4639463046C0470130F5D02368D4
:401DC0009B0710D5002504F1190907E001234A4639463046C0470130E7D00135E368039A9B1A9D42F2DBE068039B9842B8BF184605E00B7804F1420584F842308AE705B0D5
:401E0000BDE8F083FA4C00000B4D00000EB400B54FF402719CB0ADF814106FF00041049107914FF6FF711DAB02900690084853F8042BADF81610006802A9019302F024FDE9
:401E4000029B00221A701CB05DF804EB03B070476081FF1F034613F8012B002AFBD1181A013870472DE9F0410F46904602F0D6FA04460D46B8F1000F11D0C7F30A53C3F1D3
:401E80006B03002B0BDD1B0503F17F55002405F5401522462B46FFF7AFF8BDE8F08120462946BDE8F08100002DE9F04F82460C469DB00023139218934FF000084FF0000911
:401EC0001791179B1A780D2A05D8092A13D2002A00F0AD8112E02B2A04D02D2A04D0202A0CD108E0002200E001220C925A1C17925B782BB99BE101331793E2E700230C93AF
:401F0000179D2B78302B5CD16B78582B01D0782B4CD10C9BA84A019318AB009317A919AB504601F0C8FC10F00706044600F08585062E05D10135002317950C9300F07DBD50
:401F4000189A3AB135211AA802F04FFB1899504601F0D3FF062E22D8DFE806F0040D08181D0D04004FF00009C84618E0DDF86880DDF86C9013E01B9B199A23F4801302F246
:401F80003342DDF8688043EA025908E0DFF82C924FF0000803E06FF000494FF0FF38210740F14B8549F0004900F047BD179B5A1C17925B78302BF9D0002B00F03E85012339
:401FC00000E000230593179B0A22069300239B4602930493179D2E78A6F13003D9B2092911D8BBF1080FD5BF0499029902FB013302FB013305F10105D4BF049302930BF12D
:40200000010B1795E6E7504601F028FF0768504601F024FF0068FFF71DFF39460246284602F036FD074628B1002033465D46024601465AE0504601F011FF0068FFF70AFF57
:40204000179B1A1817921B5CBBF1000F45D15846302B05D1179B01305A1C17925B78F7E7A3F13102082A46D8179A0692024600200546303B00F1010129D00A44294605EBF2
:40208000000C0A2661450FD0013101F1FF3EBEF1080F03DC049F77430497F3E71029DEBF029F77430297EDE72844082800F1010505DC04980A2101FB0033049306E0102DC5
:4020C000DFBF02980A2101FB003302930021179B581C17905B78084602E05D4638463A46A3F130010929C4D90121652B01D0452B4FD16DB904E0652B40F0AD840022012141
:4021000028B9059B002B00F09280054600E00025179C631C179363782B2B06D02D2B02D00026039606E0012300E000230393A31C1793A378A3F13006092E29D8302B04D17C
:40214000179B5E1C17965B78F8E7A3F13106082E1FD8A3F1300E179B1F46179B5E1C17965B78A3F1300CBCF1090F05D80A2606FB0E3EAEF1300EF0E7F61B082E44F61F669E
:4021800002DC7645A8BF7646039F1FB1764201E017940026002D52D1002840F04E84059A002A40F04A84002941D14E2B20D007DC492B0AD03BE000BF304D00000000F07FAB
:4021C000692B02D06E2B13D031E0AA4917A801F0A3FD60B3179BA849013B17A8179301F09BFD10B9179B01331793DFF8A8921AE0A24917A801F090FDC8B1179B1B78282B28
:402200000FD11AAA9E4917A801F099FD052808D11B9BDDF8688043F0FF4949F4E00900F00CBCDFF874924FF0000800F006BC139B1794002B00F00C8400230C93FFE32C460B
:40224000BBF1000F08BFAB460498102DA8BF1024B71AFEF75BFE092C8046894613DD894B03EBC40353E91223FEF7C6FE804602988946FEF74BFE02460B4640464946FEF7DB
:4022800009FD804689460F2D33DC002F00F0D58322DD162F07DC7B4D424605EBC7014B46D1E9000113E0C5F125039F4221DC754CC5F10F0504EBC5017D1B4246D1E900017C
:4022C0004B4604EBC504FEF797FED4E90023FEF793FE80468946B0E317F1160F09DB694D4046A5EBC703D3E900234946FEF7AEFFEFE72C1B3C44002C5DDD14F00F010AD0D5
:40230000604B424603EBC101D1E900014B46FEF773FE8046894634F00F0400F0C180B4F59A7F0FDD4FF0000BCDF808B0CDF814B0CDF810B02223CAF80030DFF858914FF052
:40234000000889E14046494600234F4E24110293012C0CDDE20704D5D6E90023FEF74CFE0123029A6410013202920836F0E70BB180468946444B029AA9F1547903EBC201AF
:40238000D1E9000142464B46FEF736FE21F0004389460A461B0D3D491B058B428046C1D8A1F580118B4286BFDFF8F0904FF0FF3802F1547974E073D0644214F00F020AD0C1
:4023C000304B404603EBC2034946D3E90023FEF73DFF80468946241162D01F2C08DD4FF0000BCDF808B0CDF814B0CDF810B02CE14046494614F0100F0CBF00236A23244E57
:4024000003930023002C09DDE20704D5D6E90023FEF7F2FD012364100836F3E70BB180468946039BEBB1C9F30A53C3F16B03002B494616DD1F2B0EDD342BDEBF203B4FF05B
:40244000FF3202FA03F34FF00008CCBF4FF05C7903EA010905E04FF0FF3202FA03F303EA0808002200234046494602F0C9FB0028B5D117E0ED4C0000744E0000F54C000027
:402480001C4D0000884E0000604F00000000A07C484D00000000F07F0000F8FFFFFFEF7F00230393049B5A46009306992B46504601F075FD059000283FF434AF002FC7F15D
:4024C0000003A8BF00230D934FF0000B27EAE7731293CDF808B0059B5046596801F0D8FC049000283FF426AF059B0C301A6903F10C0102329200FFF705F81AAB019319AB22
:40250000009342464B465046CDE9088901F0F7FF189000283FF40EAF0121504601F0CAFD029000283FF406AF199B0399002BACBF0D9A129A1A9CACBFD618D21AA3EB010393
:402540002344B14903F1FF33ACBF129A0D9E8B42C4F1360480F28580C91A1F29C8BFAB4D4FF00107D4BF07FA01F3ED1AA4EB0104D9BF0793002507FA05F507973719039BED
:40258000BE4214441C443346A8BF3B46A342A8BF2346002BC2BFFF1AE41AF61A0D9B002B63D1002F7ADC129B002B40F08180002C00F38880002E00F38F80049A18995046A9
:4025C00001F0CDFE834600283FF4B4AEC3680024C4600299069301F0A6FEA04280F28B80069B002B40F00282B8F1000F40F0FE81C9F31303002B40F0F98129F000431B0DEC
:402600001B05B3F1D66F40F2F181DBF81430002B6CD059460122504601F034FE0299834601F081FE002840F3E18129F00043039A1B0D1B05002A00F08D80B3F1D66F00F31F
:402640008980B3F15C7F00F3D38122234FF000084FF00009CAF80030059B002B40F0D981EBE101230025079388E71A460299504601F0BAFD029000283FF45CAE0146189A29
:40268000504601F020FD069000283FF453AE1899504601F032FC069B189382E73A461899504601F0EFFD189000287FF47CAF41E6129A0499504601F097FD049000287FF49D
:4026C00076AF37E622460499504601F0DBFD049000287FF46FAF2DE632460299504601F0D1FD029000287FF468AF23E6DBF81030012B8EDC7AE161D1069AC9F3130322B3A2
:4027000043494A468B422ED1039B414663B1414B1340B3F1D46F07D81B0DC3F16B034FF0FF3000FA03F301E04FF0FF338B421AD139498A4202D101333FF4FCAD354B4FF031
:402740000008134003F5801950E163B9B8F1000F09D16AE7A3F580136FEA13594FF0FF386FEA095942E115B115EA090F02E0079B13EA080F00F03A81069B039A4046494686
:4027800053B1FFF76FFB02460B46DDE90801FEF781FA8046894629E1FFF764FB02460B46DDE90801FEF774FA002200238046894602F026FA00287FF448AF17E1029958466F
:4027C00001F0EBFE00224FF0804306460F4602F02BFA00283FD0069B13B100260F4F10E0B8F1000F03D1C9F313033BB91AE0B8F1010F03D1B9F1000F3FF427AF084F0026FB
:402800000024064D3CE000BF02FCFFFFE2FBFFFFFFFF0F000000F07FFFFFEF7F0000F03F0000F0BF00229A4B3046394602F0F2F940B90022974B30463946FEF7DDFB0446C7
:402840000D4601E0069C934D05F1004314941593DDE9146714E08F4B002230463946FEF7CBFB069B04460D4623B901F100430E900F9303E002460B46CDE90E23DDE90E670B
:4028800029F000431B0D1B050793079A824B9A422BD1DDE90823A9F1547940464946CDE90A2301F0BBFD02460B4630463946FEF7A3FB42464B46FEF7EDF921F000431B0D0A
:4028C000764A1B05934280460CD9754B0B9A9A4203D10A9B01333FF42DADDFF8C4914FF0FF3872E001F1547939E0039B3BB3079BB3F1D46F23D85EA3D3E9002320462946EC
:4029000002F092F9B8B129462046FEF7AFFD002808BF0120FEF7FAFA069B04460D4623B901F100431090119303E002460B46CDE91023DDE91067079A07F1D6639F1ADDE9BC
:40294000080101F06BFD02460B4630463946FEF753FBDDE90823FEF79DF980468946039B9BBB29F000431B0D079A1B059A424E462BD129462046FEF751FDFEF7D7FA0B463F
:40298000024629462046FEF783F9069B04460D462BB9B8F1000F02D1C9F313067EB136A3D3E900232046294602F034F988BB34A3D3E900232046294602F04AF904E032A370
:4029C000D3E9002302F026F918BB1899504601F094FA0499504601F090FA0299504601F08CFA5946504601F088FA74E5039B83B12C4B40460B9300230A934946DDE90A2348
:402A0000FEF7FAFA8046894619B910B92223CAF800301899504601F070FA0499504601F06CFA0299504601F068FA0599504601F064FA5946504601F060FA139B13B1179B6F
:402A4000139A13600C9B1BB1424609F1004307E042464B4604E000252A460121FFF747BB104619461DB0BDE8F08F00BFAFF300800000C0FFFFFFDF419535A094FFFFDF3FED
:402A800035E5AF350000E03F9535A094FFFFCF3F0000F03F0000E03F0000E07FFFFF9F7CFFFFEF7F00005039024B0A4601461868FFF7FAB96081FF1F2DE9F0470F468046C0
:402AC0003F48D0F800903D4615F8014B09EB0400407800F0080000F0FF0608B12F46F2E72D2C03D1BD1C7C78012603E02B2C04BF7C78BD1C13B1102B0AD15BE0302C57D1F3
:402B0000287800F0DF0058284DD16C7810230235002E14BF4FF0004C6FF0004CBCFBF3FA0027384603FB1ACC09EB040E9EF801E01EF0040F01D0303C0BE01EF0030E1BD006
:402B4000BEF1010F0CBF4FF0370E4FF0570ECEEB0404A34210DDB7F1FF3F0AD0504506D801D1644503DC03FB0040012701E04FF0FF3715F8014BD7E77B1C0CD1002E4FF0CF
:402B8000220314BF4FF000406FF00040C8F800302AB9BDE8F08706B1404272B107B1691E1160BDE8F0873024002BB1D10823AFE70A23ADE7302CA3D0AAE7BDE8F08700BF2A
:402BC0006481FF1F13460A46014602480068FFF773BF00BF6081FF1F2DE9F74F03690C6980469C427FDC013C01F114074FEA840E00F1140606EB0E0357F82450019356F847
:402C000024300135B3FBF5F507EB0E09C5B34FF0000A3846B446D34650F8043B9AB205FB02A21B0C4FEA124A05FB03A392B2C2EB0B0BBCF800204FEA134A5A441FFA83FB98
:402C4000DCF800308145CBEB134303EB224392B242EA03424FEA234B4CF8042BDCD256F80E306BB9019B043B9E421A4602D3C8F8104005E01268043B002AF8D1013CF3E756
:402C8000404601F050FB00282BDB304601354FF0000E57F8042B036891B2C1EB0E0E120C99B27144C2EB134303EB214389B24FEA234EB94541EA034340F8043BE9D256F8F0
:402CC000242006EB840362B9043B9E421A4602D3C8F8104005E01268043B002AF8D1013CF3E7284600E0002003B0BDE8F08F00002DE9F04F456A95B08246219CCDE9022303
:402D000045B9102001F0AEF8CAF82400456085600560C560DAF82430196859B15A68012393404A608B60504601F0E7F8DAF8243000221A60039BA04A002BBDBF01232360D7
:402D4000039B0023BCBF23F000430393DDF80C80A8BF236028F000431B0D1B0593421DD142F20F73209A1360029B43B9934A944BC8F31300002814BF1846104600E090480D
:402D8000229B002B00F04685C37813B100F1080300E0C31C229A136000F03CBDDDE90245002200232046294601F02AFF074658B1209A01231360229B002B00F01E85814872
:402DC0001860013800F026BD12AB019313AB009322462B46504601F092FBC8F30A56049056B1C5F3130343F07F51204641F44011A6F2FF3611971DE0139B129E1E4406F223
:402E00003243202B0ADD029A06F21240C3F1400322FA00F008FA03F3184304E0C3F12000029B03FA00F0FEF771F80123A1F1F871013E11930022644BFDF72AFF58A3D3E968
:402E40000023FEF7D9F858A3D3E90023FDF722FF044630460D46FEF769F855A3D3E90023FEF7CAF802460B4620462946FDF712FF04460D46FEF7D2FA00228346002320463E
:402E8000294601F0C7FE58B15846FEF74FF802460B462046294601F0B3FE08B90BF1FF3BBBF1160F0DD8DDE90223484901EBCB01D1E9000101F0CCFE30B10BF1FF3B002369
:402EC00000E00123109300E01090129B9E1B731E079343BFC3F10008002307934FF00008BBF1000F06DB079BCDF82CB05B440793002705E00023CBEB0808CBF100070B93EA
:402F00001E9B092B28D8052BC4BF043B1E931E9BC8BF0025A3F10203D8BF0125032B20D8DFE803F0060E0204012302E0012308E000230A931F9B002B1DDD9946059321E023
:402F400000230A931F9B0BEB030909F10103012B0593B8BF012315E0012500231E930A9501E001230A934FF0FF390022CDF8149012231F9206E04FF001094B46CDF8149037
:402F8000CDF87C90DAF8244000226260042101F114029A421CD86268490001326260F6E761436F63A787D23FB3C8608B288AC63FFB799F501344D33F0000F07F714E000078
:402FC0007A4E0000F94C00000000F83F884E00006168504600F05CFFDAF8243020601B680693059B0E2B00F25B81002D00F05881DDE90234BBF1000FCDE90E3430DD9F4A09
:403000000BF00F034FEA2B1502EBC303E80618CBCDE908340CD5DDE90E01994B05F00F05D3E90823FEF712F90324CDE9020100E00224934E6DB1E90708D5DDE90801D6E9CA
:403040000023FDF7D9FFCDE9080101346D100836F0E7DDE90823DDE90201FEF7F7F820E0CBF1000505B3DDE90E01844B05F00F0203EBC203D3E90023FDF7BEFFCDE902011E
:403080007F4E2D110023022455B1EA0705D5D6E90023FDF7B1FF013401236D100836F3E71BB1CDE9020100E00224109BE3B1DDE902560022734B2846314601F0ABFD98B1E8
:4030C000059B8BB1B9F1000F40F3E6800BF1FF330893314600226C4B2846FDF78DFF0134CDE902014E4602E0059ECDF820B02046FDF71CFFDDE90223FDF77EFF634B00225E
:40310000FDF7C8FDA1F1507304460C931D46D6B9DDE9020100225E4BFDF7BAFD22460C9BCDE9020101F094FD002840F03F820C99224601F10043DDE9020101F06BFD002878
:4031400040F02B82A8E00A9A4C4B711E002A49D003EBC103D3E9002300204E49FEF776F822462B46FDF794FDCDE90C01069CDDE90201FEF753F90546FDF7D8FE02460B46B7
:40318000DDE90201FDF784FDDDE90C23303504F8015BCDE9020101F03DFD002840F01D83DDE9022300203749FDF772FDDDE90C2301F030FD002840F0D180069BE31AB34206
:4031C0006ADADDE90C0100222F4BFDF715FF0022CDE90C01DDE902012B4BFDF70DFFCDE90201C4E703EBC1012246D1E900012B46FDF702FF069BCDE90C011D469C19DDE911
:403200000201FEF70BF90646FDF790FE02460B46DDE90201FDF73CFD303605F8016BAC42CDE902014FF0000222D11A4BDDE90C01FDF730FD02460B46DDE9020101F008FDDA
:40324000002840F08B80DDE90C2300201149FDF71FFD02460B46DDE9020101F0DBFCD8B114F8013C621E302B40F0B7821446F7E7054BFDF7C1FECDE90201C0E7884E0000BB
:40328000604F00000000F03F0000244000001C40000014400000E03FDDE90E34CDE90234139B002B7CDBBBF10E0F79DCAB4B03EBCB03D3E900671F9B002B14DA059B002B48
:4032C00011DC40F06C810022A54B30463946FDF793FEDDE9022301F0B1FC059D2E46002840F05F8165E1069CDDE9028932463B4640464946FDF7AAFFFEF790F80546FDF7C1
:4033000015FE32463B46FDF777FE0B46024649464046FDF7BDFC05F1300E069B04F801EBC3EB040E059B73452DD102460B46FDF7B1FC8046894602460B463046394601F09C
:4033400069FC78B942464B463046394601F058FC002800F04482EB0704D440E2DDF820B000E01C4614F8012C631E392A07D1069A9A42F6D1069930220BF1010B0A701A7876
:4033800001321A702BE20022764BFDF735FE002200238046894601F033FC0028A6D01EE20A9A002A2BD01E9A012A0ADC119A12B103F2334302E0129BC3F136033D464446AD
:4033C00013E0059B5D1EAF42BFBF0B9BEA1B9B180B93059BB6BF2F467D1B0025002BA7BF4446059BC3EB08040023079A01211A4450469844079200F05DFE064602E03D464D
:4034000044460A9E5CB1079B002B08DDA342A8BF2346079AC3EB0808E41AD31A0793002F1DDD0A9BABB18DB131462A46504600F0DBFE049A01460646504600F044FE0499BE
:403440000890504600F059FD089B04937A1B06D000E03A460499504600F0C6FE04900121504600F027FE0B9B05465BB31A460146504600F0B9FE1E9B0546012B18DC029BE7
:4034800083B9039BC3F3130373B9039B23F000473F0D3F054FB1079B08F1010801330793012702E0002700E0029F0B9B73B100E000272B6905EB8303186900F0AEFDC0F1E6
:4034C000200004E01E9B012BD9DD0B9F0120079B184410F01F0008D0C0F12003042B02DDC0F11C0002E006D018461C30079B8044034404440793B8F1000F05DD424604990E
:40350000504600F0BFFE0490079B002B05DD29461A46504600F0B6FE0546109B23B32946049800F000FF00281EDA00230A220499504600F0F9FC0A9B0BF1FF3B0490002B15
:4035400000F05F81314600230A22504600F0ECFCB9F1000F06463FDC3BE000BF884E00000000144000002440059B002B2BDC1E9B022B28DDDDF81490B9F1000F11D129467F
:403580004B460522504600F0CFFC01460546049800F0C9FE00280CDC03E0354600E000252E461F9B069C6FEA030B09E03546DDF820B0069B069A5C1C312313700BF1010BD2
:4035C00005960026F7E00A9BDDF8149023B9069CB2E01E9B022BCFDC002C05DD31462246504600F04FFE06469FB17168504600F04FFC0446326906F10C01023292000C3083
:40360000FDF780FF01222146504600F03BFE059000E00596029B069F03F00103079329460498FFF7D9FA3146044600F13008049800F079FE059A02902946504600F08FFE77
:40364000C36802463BB901460A90049800F06BFE0A9A034600E00123114650460A9300F04CFC0A9B53B91E9A42B9079A32B9B8F1390F2AD0029B002B1CDC1DE0029A002AFC
:4036800004DB1BD11E9ACAB9079ABAB9002B13DD01220499504600F0F5FD2946049000F042FE002803DC07D118F0010F04D0B8F1390F0AD004F131087C1C0CE0002B07F1FF
:4036C00001040BDDB8F1390F03D139233B70013756E008F1010887F800806CE0069B2746E31A4B4504F8018C3BD000230A220499504600F019FC059B04909E424FF00A0241
:403700004FF000033146504604D100F00DFC0646059084E700F008FC002306460A220599504600F001FC059079E700230A220499504600F0F9FB049029460498FFF74CFA3A
:40374000069B00F1300804F8018BE31A4B45ECDB069B0596B9F1010FACBF4B4401331F46002601220499504600F08CFD2946049000F0D9FD002803DC15D118F0010F12D075
:403780003C4614F8013C621E392B09D1069B934204D10BF1010B3123069A02E01446F0E70133137007E03C4614F8013C621E302B01D11446F8E72946504600F09EFB059BA9
:4037C0006BB12EB19E4203D03146504600F095FB0599504600F091FB01E0DDF820B00499504600F08AFB0023209A23700BF101031360229B1BB11C6001E008480AE006980F
:4038000008E0B9F1000F3FF7E2AE1E9B022B7FF7DEAEB1E615B0BDE8F08F00BFF84C0000F0B506694B11B34200F1140527DA11F01F0105EB860605EB830201D1294616E0FD
:40384000141D55F823202B46C1F1200ECA40B44209D2276807FA0EF73A4343F8042B54F8042BCA40F3E71A6052B1043308E0B2420B4605D252F8043B41F8043BF7E72B4678
:403880005B1B9B10036103B94361F0BDA0F13003092B01D820380AE0A0F16103052B01D8473804E0A0F14103052B02D82738C0B27047002070472DE9F04F8BB08A4690468E
:4038C0000693029000F0CAFA03684FF0000B18460393FEF7BFFA039B0190034413F8013C0793DAF8003002331F4613F8010B302802D10BF1010BF7E7FFF7C8FF0446E0B9D6
:40390000019A0399384601F0C3F8002834D1019BF85CFE18FFF7BAFF80B3334618781F46302803F10103F9D0FFF7B0FFB0FA80F534466D094FF0010B01E000252C463A4693
:40394000164630780132FFF7A1FF0028F8D1019A0399304601F09CF850B954B9019BF4182246164630780132FFF790FF0028F8D134B1A41BA40003E03E4600E00446012585
:403980003378502B01D0702B2AD173782B2B08D02D2B03D0711C4FF0000905E04FF0010901E04FF00009B11C0878FFF76FFF431EDBB2182B14D8A0F1100211F8010FFFF78A
:4039C00065FF431EDBB2182B04D80A2303FB0202103AF2E7B9F1000F00D05242144400E03146CAF800102DB1BBF1000F14BF002006207CE12946F31B013B072B02DD01315B
:403A00005B10FAE7029800F043FA4FF000090546CB46019B00F1140AC3F10103CDF810A00893B7422FD2731E0593079A16F8013C93420BD0BBF1200F16D1049BC3F80090F1
:403A400004334FF000090493CB460DE0059B089A13449F42EED81846019A0399099301F017F8099B68B1E5E716F8010CFFF70EFF00F00F0000FA0BF0059B49EA00090BF14E
:403A8000040B1E46CDE7049840F8049BCAEB0000801028614701484600F0BFFAD8F80060381AB04226DD871B3946284600F0B7FDC8B17B1E591103F01F024FF001095AF84A
:403AC000211009FA02F20A420ED04B4502DC4FF0020909E0B91E284600F0A1FD0028F6D04FF0030900E0814639462846FFF798FE3C440CE009DA371A29463A46029800F08E
:403B0000C1FB0546E41B00F1140A4FF00009D8F808309C4208DD0298294600F0EEF9149A00231360A320E2E0D8F80400844253DA041BA6422EDCD8F80C30022B1AD0032B8B
:403B40001CD0012B1DD1A6421BD1012E0BDCD8F80430069A6220136001232B61CAF80030149B1D60C3E0711E284600F058FD0028EDD106E0159B002BE9D002E0159B002BEC
:403B8000E5D10298294600F0B8F9149A002313605020ACE0671EB9F1000F06D13FB13946284600F03CFD814601E04FF001097A11012307F01F0703FA07F75AF82230214687
:403BC0001F42284618BF49F00209361BFFF728FE0227D8F8044000E00127B9F1000F00F08180D8F80C30022B0ED0032B10D0012B76D119F0020F73D0DAF8000049EA00097C
:403C000019F0010F07D16BE0159BC3F101031593159B002B64D0D5F810A005F114034FEA8A0903EB090100201A68B2F1FF3F02D001321A6020E043F8040B9942F4D8AB68D5
:403C40009A4512DB69680298013100F021F983462A6905F10C01023292000C30FDF752FC2946029800F049F95D462B695A1C2A6105EB830301225A61022F05F1140211D148
:403C8000D8F80030013B9E4227D17111012306F01F0603FA06F652F821301E420CBF022701271AE02B699A450ADA01212846FFF7B7FDD8F8083001349C423FF72CAF0BE07D
:403CC00016F01F0608D0914459F8040C00F0A5F9C6F12006B042E8DB012747F0200701E047F010073846149B1D60069B1C600BB0BDE8F08FC2F10802920070B5C2F12006C3
:403D00004368056803FA06F42C43D340046040F8043F8842F4D370BD30B5036811F8014B01334CB11A78A2F14105192D98BF2032A242F3D0002030BD0360012030BD0B688D
:403D40002DE9F04F5E1102EB860613F01F0318BF0436351F174600228246A8462C46914685B0D0F800B0019346F8042C00921BF8011F00293CD0084603920291FFF786FD66
:403D8000039A00BB0299202916D8009B9945EEDD444505D2072A03DC41462046FFF7AAFFBC4223D90023A4F1040844F8043CCDF8009044461A46DAE7292948D10BF10103F4
:403DC000CAF8003014E00132082A09F1010906DDBC42CCD9002344F8043C0122043C216800F00F0040EA01102060C0E70822BEE7B9F1000F2BD0444505D2072A03DC414688
:403E00002046FFF777FFBC420CD93B4654F8042BA54243F8042BF9D2002243F8042B9D42FBD20BE0019B4BB1C3F120024FF0FF33D34056F8042C134046F8043C2B6843B9C2
:403E4000BD4202D101232B6003E0043DF6E7042000E0052005B0BDE8F08F0000004870476881FF1F024B0146186800F055BC00BF6081FF1F10B5C9B202449042034605D06F
:403E80001C7801308C42F8D1184610BD002010BD70B5456A04460E463DB91020FFF7E2FF6062456085600560C560656AEB6843B1636ADB6853F8260078B1026843F826209E
:403EC00017E021220421204600F0CBFB636AE860DB68002BECD1002070BD012101FA06F56A1D9200204600F0BCFB0028F3D04660856000230361C36070BD70B5446A064610
:403F00000D463CB91020FFF7ADFF7062446084600460C4603DB1736A6A68DB6853F82210296043F8225070BD2DE9F04106460C460D691F4601F1140E0023DEF800000133C4
:403F400081B202FB0171000C0F0C02FB007089B201EB00419D424FEA10474EF8041BECDCD7B1A3689D4212DB616830460131FFF78FFF8046226904F10C01023292000C305E
:403F8000FDF7C0FA21463046FFF7B7FF444604EB850301355F6125612046BDE8F0812DE9F843064615461F46092208330C4693FBF2F3002101229A4202DA52000131FAE7E8
:403FC0003046FFF765FF089B092D43614FF00103036111DD04F10908C1462C4419F8013B0146303B0A223046FFF79EFFA145F5D108EB0504083C01E00A3409252D1B631931
:404000009F4208DD14F8013B0146303B0A223046FFF78AFFF3E7BDE8F883030C1B0413B90004102300E0002310F07F4F04BF0002083310F0704F04BF0001043310F0404F5A
:4040400004BF80000233002803DB420003D5581C70471846704720207047036813F007020BD0D90722D49A074BBF5B089B08036003604CBF01200220704799B209B91B0C99
:40408000102213F0FF0F04BF1B0A0832190704BF1B090432990704BF9B080232D90702D45B0805D00132036010467047002070472020704710B50C460121FFF7E9FE01228C
:4040C0004461026110BD2DE9F74F14460A69236988469A42BEBF0B46A0461C46D8F81070D4F81090D8F80830D8F8041007EB09069E42C8BF0131FFF7CBFE00F114052B46FA
:4041000005EB860C0022634502D243F8042BFAE704F1140208F1140102EB890301EB87070093009B0192934257D9B2F800B0BBF1000F23D08946AE464FF0000859F8044B90
:40414000BEF800A0A3B20BFB03A34FEA144ADEF8004043444FEA14480BFB0A84F24604EB13449BB243EA04434F454FEA14484AF8043B01D9D646E1E7CEF80480019B0432C8
:40418000B3F802A0BAF1000F21D02C4689462B684FF00008B9F800E0B4F802B09BB20AFB0EBEA346F04443EA08434BF8043B59F8043BB4F804E01B0C0AFB03E34F4503EB14
:4041C00018434FEA134801D95C46E3E763600435A7E75CF8043D13B9013E002EF9DC066103B0BDE8F08F00002DE9F843154612F0030206460F4607D0214C013A002354F8DD
:404200002220FFF791FE0746AD1036D0746A3CB91020FFF727FE7062446084600460C460D6F82480D8F808404CB940F271213046FFF740FF04460023C8F8080003604FF0D2
:404240000008EB070AD5394622463046FFF73BFF814639463046FFF750FE4F466D100CD0206808B10446ECE7224621463046FFF72AFF2060C0F80080F4E73846BDE8F883F7
:40428000504F00002DE9F0470C460746914626694FEA621A56444968A368751CAB4202DA01315B00FAE73846FFF7F2FD002380461A4600F11401534503DA41F82320013363
:4042C000F9E72AEAEA73206901EB830319F01F0904F1140101EB800E14D0C9F1200C002208689A4600FA09F0024343F8042B51F8042B8E4522FA0CF2F2D8CAF8042042B1D7
:40430000B51C06E0043B51F8042B8E4543F8042FF9D8013D3846C8F810502146FFF7EDFD4046BDE8F08703690A6910B59B1A11D192001430143183180A4453F8044D52F813
:40434000041D8C4202D007D3012010BD9842F4D3002010BD184610BD4FF0FF3010BD2DE9F8430C460746114620461546FFF7DBFF061E08D131463846FFF78AFD01230361F1
:404380004661BDE8F883BCBF23462C4638466168BABF1D4601260026FFF77AFD2B69C660266905F1140904F1140101EB860709EB830800F114054FF0000C51F8042B59F887
:4043C000044B93B29C44A3B2240CC3EB0C03C4EB124202EB23429BB24FEA224CC84543EA02428E4645F8042BE7D8BE450ED25EF8041B8AB26244131403EB114392B242EA2E
:4044000003424FEA234C45F8042BEEE755F8043D0BB9013EFAE70661BDE8F883104B0B40A3F15073002B02DD0020194670475B421B15132B4FF000004FF0000104DC4FF46B
:40444000002242FA03F17047143B1E2B4FF00102CEBF1346C3F11F0302FA03F3184670470000F07FF8B5056900F1140606EB850555F8044C2F1F2046FFF7CFFDC0F120039F
:404480000A280B6014DCC0F10B0E24FA0EF1BE4241F07F5334BF55F8081C0021153004FA00F021FA0EF143F4401340EA010223E0BE423ABFA5F1080755F8081C00210B3886
:4044C00015D08440C0F1200544F07F5444F44014B74221FA05FE44EA0E038CBF57F8044C002401FA00F0EC4040EA040204E00A4644F07F5343F4401310461946F8BD2DE9BB
:40450000F3411C4601219046089E099DFFF7C0FCC4F31302C4F30A5407460CB142F480120192B8F1000F19D002A840F8088DFFF794FD009B48B1019AC0F1200102FA01F11B
:404540000B43C2407B61019200E07B61019B002B14BF02210121BB61396107E001A8FFF77CFD019B01217B613961203034B1A4F2334404443460C0F1350009E0A0F2324007
:4045800007EB810330601869FFF747FDC0EB41102860384602B0BDE8F0812DE9F743884669468146FFF75EFF0D46044601A94046FFF758FF0F460646D9F81030D8F81020BD
:4045C00020469A1A9DE80A00C91A01EB4213002BCCBF05EB0355A7EB035732463B462946FCF734FE03B0BDE8F083013910B549111469013102F1140300EB810103EB8404B7
:40460000A342024604D253F8042B40F8042BF7E700238A4202D242F8043BFAE710BD00F1140200694B11984210B50CDB0CDD11F01F0109D052F8234024FA01F000FA01F1F1
:404640008C420CD100E0034602EB8303934204D953F8041D0029F9D001E0002010BD012010BD38B502FB01F4214600F055F8054618B122460021FCF750FF284638BD000062
:4046800038B50546002944D051F8043C0C1F002BB8BFE41800F02CFA1E4A1368114613B96360146030E0A3420DD92268A018834201BF18685B681218226063600C6023E01D
:4046C000A24203D813465A68002AF9D118681918A1420BD12168014458188242196013D110685268014419605A600DE002D90C232B6009E021686018824201BF1068526851
:404700000918216062605C602846BDE8384000F0F0B938BDE881FF1F70B5CD1C25F0030508350C2D38BF0C25002D064601DBA94202D90C23336046E000F0DAF9234B1C6838
:404740001A462146A1B10B685B1B0ED40B2B03D90B60CC18CD501EE08C420BBF63684B681360636018BF0C4615E00C464968E9E7174C23681BB9304600F07AF92060294612
:40478000304600F075F9431C18D0C41C24F00304A0420DD12560304600F0ABF904F10B00231D20F00700C31A0ED05A42E25070BD211A304600F05CF90130EBD10C233360E2
:4047C000304600F096F9002070BD00BFE881FF1FE481FF1F2DE9F0478E6882469E420C46914698463ED88A8912F4906F3AD02568096902236F1A656905EB450595FBF3F557
:404800007B1C43449D4238BF1D4653050FD52946FFF782FF064698B13A462169FCF772FEA38923F4906343F08003A38113E02A4600F060F9064670B921695046FFF720FF97
:404840000C23CAF80030A3894FF0FF3043F04003A381BDE8F08726613E44266046466561ED1BA560464528BF464649463246206800F023F9A36800209B1BA36023681E446F
:404880002660BDE8F08700002DE9F04F9DB003938B8980461C060D4616460DD50B695BB94021FFF739FF2860286118B90C23C8F80030CDE040236B610023099320238DF816
:4048C0002930DFF89CB130238DF82A3037463C4614F8013B1BB9B7EB060910D003E0252BF9D02746F3E74B46324629464046FFF771FF013000F0A780099B4B4409933B78EC
:40490000002B00F0A08000234FF0FF3204930793059206938DF853301A930126052221784E48FFF7A7FA671C049B38B14B4A3C46801A06FA00F018430490EFE7D90644BF2C
:4049400020228DF853201A0744BF2B228DF8532022782A2A03D0079A00210A200BE0039A111D12680391002A10DA524243F00200079204900BE027463B780134303B092B3A
:4049800003D800FB02320121F5E701B107923B782E2B1ED17B782A2B0AD1039B02371A1D1B680392002BB8BF4FF0FF33059310E0002319460593781C0A2407463A780130B9
:4049C000303A092A03D804FB01210123F5E703B10591032239782248FFF74CFA40B14023CBEB000003FA00F0049B013718430490397806221B487E1C8DF82810FFF73AFADE
:404A000088B1194B33B9039B073323F007030833039314E003AB00932A46144B04A94046FCF714FE07E003AB00932A460F4B04A94046FDF7C5F8B0F1FF3F824603D0099BF7
:404A40005344099342E7AB895B0601D4099801E04FF0FF301DB0BDE8F08F00BF884F00008E4F0000924F00004D160000D547000038B5064C0023054608462360FBF736FE18
:404A8000431C02D1236803B12B6038BD1886FF1F30B582B1451E013915F8013F11F8014FA34206D1EC431444E04201D0002BF3D11C46181B30BD104630BD884210B501EB89
:404AC000020301D8421E0BE09842FBD28118D21AD34204D013F8014D01F8014DF8E710BD994204D011F8014B02F8014FF8E710BD70477047F8B5074615460E4621B91146EA
:404B0000BDE8F840FFF708BE1AB9FFF7B9FD2846F8BD00F015F885420ED929463846FFF7FBFD044650B131462A46FCF7EBFC31463846FFF7A5FD01E03046F8BD2046F8BDF4
:404B400051F8040C0028BEBF091851F8043CC018043870474FF0FF3C06E000BF4FF0010C02E000BF4FF0010C4DF804CD4FEA410C7FEA6C5C4FEA430C18BF7FEA6C5C1BD022
:404B800001B050EA410C0CBF52EA430C91EA030F02BF90EA020F0020704710F1000F91EA030F58BF994208BF90422CBFD8176FEAE37040F0010070474FEA410C7FEA6C5C6A
:404BC00002D150EA013C07D14FEA430C7FEA6C5CD6D152EA033CD3D05DF8040B704700BF8446104662468C461946634600E000BF01B5FFF7B7FF002848BF10F1000F01BD9B
:404C00004DF808EDFFF7F4FF0CBF012000205DF808FB00BF4DF808EDFFF7EAFF34BF012000205DF808FB00BF4DF808EDFFF7E0FF94BF012000205DF808FB00BF4DF808EDD6
:404C4000FFF7CEFF94BF012000205DF808FB00BF4DF808EDFFF7C4FF34BF012000205DF808FB00BF4FEA410C7FEA6C5C02D150EA013C0AD14FEA430C7FEA6C5C02D152EAE4
:404C8000033C02D14FF0000070474FF001007047000000000000000025303864092530382E3066092530386400000000305100404000F051004010000000014000100014B9
:404CC00001408006001B0140000100400140000A004C01400002005001402000801A0140D003004880004300494E4600696E66004E414E006E616E00300030313233343579
:404D00003637383941424344454600303132333435363738396162636465660034000000CEFBFFFFCB030000010000000000000035000000CEFBFFFFCB0300000100000009
:404D40000000000000000000BC89D897B2D29C3C33A7A8D523F649393DA7F444FD0FA5329D978CCF08BA5B25436FAC642806681100202020202020202020282828282820F0
:404D80002020202020202020202020202020202020881010101010101010101010101010100404040404040404040410101010101010414141414141010101010101010135
:404DC0000101010101010101010101011010101010104242424242420202020202020202020202020202020202020202101010102000000000000000000000000000000033
:404E00000000000000000000000000000000000000000000000000000000000000000000000000000000000000000000000000000000000000000000000000000000000072
:404E400000000000000000000000000000000000000000000000000000000000000000000000000000000000000000000000000000496E66696E697479004E614E00504F4C
:404E8000534958002E000000000000000000F03F000000000000244000000000000059400000000000408F40000000000088C34000000000006AF8400000000080842E41F5
:404EC00000000000D01263410000000084D797410000000065CDCD41000000205FA00242000000E876483742000000A2941A6D42000040E59C30A2420000901EC4BCD6421D
:404F000000003426F56B0C430080E03779C3414300A0D8855734764300C84E676DC1AB43003D9160E458E143408CB5781DAF154450EFE2D6E41A4B4492D54D06CFF08044CA
:404F4000F64AE1C7022DB544B49DD9794378EA4405000000190000007D000000000000000080E03779C34143176E05B5B5B89346F5F93FE9034F384D321D30F94877825A1E
:404F80003CBF737FDD4F1575232D302B2000686C4C0065666745464700000000F8B500BFF8BC08BC9E4670474D00000069070000F8B500BFF8BC08BC9E467047290000007B
:404FC000D04F0000C880FF1FD8000000800400000000000000000000000000000000F03F00000000000000000000000000000000400600002086FF1F0000E02EC05D00006C
:405000001800000000366E010000000000000000000000000000000000000000000000000000000000000000E64C0000000000000000000000000000000000000000000081
:40504000000000000000000000000000000000000000000000000000000000000000000000000000000000000081FF1F704D0000844E00008D4F00008D4F00008D4F00006E
:405080008D4F00008D4F00008D4F00008D4F00008D4F00008D4F0000FFFFFFFFFFFFFFFFFFFFFFFFFFFF0000000000000000000000000000000000000000000000000000D6
:4050C00000000000000000000000000000000000000000000000000000000000000000000000000000000000000000000000000000000000000000000000000000000000B0
:40510000000000000000000000000000000000000000000000000000000000000000000000000000000000000000000000000000000000000000000000000000000000006F
:40514000000000000000000000000000000000000000000000000000000000000000000000000000000000000000000000000000000000000000000000000000000000002F
:4051800000000000000000000000000000000000000000000000000000000000000000000000000000000000000000000000000000000000000000000000000000000000EF
:020000040003F7
:0200000480007A
:4000000003520040025B0040026400400265004001070140630801403209014001150140011701405B1801403F1901400C1A0140421B01400440014003410140034201403E
:400040000443014002460140034701400448014002490140054C0140094D0140045001400151014009406180644027212F42880D890F88388B72EE040201120216061701CC
:4000800021012A0C300432013402360837013E104030410449FF4AFF4BFF4DA04F04501852805405580459045A045B045F01604062C06440654066C068C06AC06CC06EC071
:4000C0008140851086038B208CDC8D0C8E228F23901092AC970C9A209B239C0C9D219E719F06A014A308A809AAD0AC10AD21AE40AF0EB10FB340B41FB520B6E0B710BA804F
:40010000BB02BF54C030C104C5D0C721C832C9FFCAFFCBFFCDAFCE0FCF04D018D401D804D904DA04DB04DC11DD10DF01E040E2C0E440E540E6C0E8C0EAC0ECC0EEC000846E
:4001400004200520068009200A810D0A108412011604180419401A011D081E081F82208022242342264029422A012F80300431243240360838243B42410A450A4B01510267
:40018000520C59215A085B405E885F0176808B02C015C23BC44BCA89CC4ECE0FD0C3D6DFEE04EE08E2080201050108080B010C10141A1604181E19011C1A1E041F012204E5
:4001C000241828062A182E01300231013201361C39023AA03E054006454049FF4A074BFF4C404D204EF04F05500854185604580459045A045B045C115D115F01604061A832
:400200006240632081028301850187028C8A8E1490D3920C9503960899039CD39E04A403A604A820AA45B00FB230B4C0B703B828BA02BE10C052C101C5E0C6CBC80EC9FFFE
:40024000CAFFCBFFCEF0CF44D00CD804D904DA04DC11DD01DF01E6C0EA40EB020080052006410A610B400C100D800E240F101120121015011620176019041AE01B101C40EF
:400280001DC01E041F042301274030283540372039083B013E043F104120420149014B424D024F205090521055305C0265806788874092019420968097029D07A040A30247
:4002C000A480A520B620B740C0D1C2EDC4F6CC36CE63D00CD228D680D8B00101150119011E012201330136013E40580459045C105F010541072409400C200E220F011080CF
:400300001519168019801C101D811F1223102540261027212C042F923028341035403601370838023EAA4414458047254C804F1056405C406C296D107520762B801285016F
:40034000871089048A108B88904093019509981099409C029DA09E619F20A428A610AB02C0F0C2E1C478CAF0CCF6CEF1D0F0D220D610E804EE08300233203680CC70A40200
:40038000A680A720A402A680A720A402A680AB20EE201B04C6088B40AB04E0048402A402A680E210AE80EE101F8062019340C601D8021080734088809340AA01AF80C40823
:4003C000DC01E60100030C0310021C02003F00002610C8000608000006180000000006E30080000000440600E0FF000084DC3021003C06C242003104E0E7001800C0000031
:40040000E00006D8011F183800000028000040002603040001C00E0006FFFFFF62A0F0410C00000000000210040404041111000100000000000040020010301000101012DF
:400440000000000000000000000000000000000000000000000010008000408080008000000000000043430040000000060000060200000009000000010014010C00180114
:400480000E00180100000000000000000000000000000000000000000000000000000000000000000000000000000000000000000000000000000000000000000000000015
:4004C00000000000000000000000000000000000000000000000000000000000000000000000000000000000000000000000000000000000000000000000000000000000FC
:4005000000000000000000000000000000000000000000000000000000000000000000000000000000000000000000000000000000000000000000000000000000000000BB
:40054000000000000000000000000000000000000000000000000000000000000000000000000000000000000000000000000000000000000000000000000000000000007B
:40058000000000000000000000000000000000000000000000000000000000000000000000000000000000000000000000000000000000000000000000000000000000003B
:0200000490006A
:0400000000004005B7
:0200000490105A
:04000000BC90ACAF55
:0200000490303A
:0200000060E6B8
:0200000490402A
:4000000000000000000000000000000000000000000000000000000000000000000000000000000000000000000000000000000000000000000000000000000000000000C0
:400040000000000000000000000000000000000000000000000000000000000000000000000000000000000000000000000000000000000000000000000000000000000080
:400080000000000000000000000000000000000000000000000000000000000000000000000000000000000000000000000000000000000000000000000000000000000040
:4000C0000000000000000000000000000000000000000000000000000000000000000000000000000000000000000000000000000000000000000000000000000000000000
:0200000490501A
:0C00000000012E16106900012E36714F11
:00000001FF